:040000000200613267
:01000B0032C2
:0100130032BA
:01001B0032B2
:0100230032AA
:01002B0032A2
:01003300329A
:01003B003292
:01004300328A
:01004B003282
:01005300327A
:03005B000207F4A5
:0900BA0075080075091002005ED2
:03005E000200C3DA
:2000C3007F00751BFC751C03ACFF74FD5CF5FFACF774FD5CF5F7C00712088D43FF01C2A0A3
:2000E30043FD80C287120D759000641208AFD007E5A030E105751800805E751801D287756A
:20010300B5BE7B0075B473E5B420E6FBEB30E007E5BA5FF5BC8006E5BAC4540FFF0BBB04F2
:200123000040E17B0443B404E5B4540C70FAEB2400F582E434F0F583E5BCF0EB042400F51F
:2001430082E434F0F583E5BDF00B0BBB080040D590F008740DF0800F75281875290090F0BF
:200163000075F000120ADC43C63875CD6175CB7ED2AF120C181208E812083DE518700343BA
:20018300B808E5D1FB20E0030207C790F068E0FBBBC50280030207BB90F069E0FBBB2A02E1
:2001A30080030207BB750B00750A0274B8250A5003020368E50A2468FDE434F0FE8D158E2B
:2001C300167517008515828516838517F0120EF2FA8A0D8515828516838517F0120EF20336
:2001E3005480FA74012515FCE43516FDAE178C828D838EF0120EF2C3134AF50E8C828D83A3
:200203008EF0120EF2030354C0FC74022515FBE43516FDAE178B828D838EF0120EF20303E6
:20022300543F4CF50F8B828D838EF0120EF2C42354E0FB74032515FCE43516FDAE178C8269
:200243008D838EF0120EF2C423541F4BF5108C828D838EF0120EF2C454F0FC74042515FBF2
:20026300E43516FDAE178B828D838EF0120EF2C4540F4CF5118B828D838EF0120EF2C403F0
:2002830054F8FB74052515FCE43516FDAE178C828D838EF0120EF2C40354074BF5128C8244
:2002A3008D838EF0120EF225E025E0FC74062515FBE43516FDAE178B828D838EF0120EF248
:2002C30023235403FA4CF5138B828D838EF0120EF225E0FB8B147E00EE240DF9E7C3139001
:2002E3000F1293FDF70EBE080040EDAE0B050BEE2418F582E434F0F58374F0550DFEE50EB1
:20030300C4540F4206EEF0AE0B050BEE2418F582E434F0F58374F0550FFEE510C4540F427F
:2003230006EEF0AE0B050BEE2418F582E434F0F58374F05511FEE512C4540F4206EEF0AE32
:200343000B050BEE2418F582E434F0F58374F05513FEE514C4540FFD4206EEF07407250AA7
:20036300F50A0201AEAED174FE5EF5D175D60175190F751A1D750C00AB197A00851A1D8A1B
:200383001EE50C2418F582E434F0F583E0FD7E00E51D6205E51E6206E4CD25E0CD33FEED48
:2003A30024A2F582EE340FF583E493FDA3E493FEED6AF519EE6BF51A050C74DA250C50B863
:2003C30090F03EE0FEAD1AB5050280030207C290F03FE0FEAD19B5050280030207C290F0C0
:2003E30018E0FFBF580280030205097528007529F0752A00752B08752C0090F01975F00046
:20040300120E5CE5828583F045F060030207C2D2A0E50924F0500B12083D75CB7E75CD571E
:200423008015745725CAF5CDE5CD249A400674A325CD400375CD6175090090F0B0E0FE6314
:2004430006808E04E4CC25E0CC33CC25E0CC33FD851B28851C2990003FC005C004120E3FB7
:20046300AA82AB83D004D005EA2CFCEB3D8C1BA2E7C51B33C51B33A2E7C51B33C51B33C572
:200483001B5403F51C74E8251BF5197403351CF51AAD1990F03BEDF0AD1A90F03CEDF09007
:2004A300F01F74DFF090F02023F075199F751AFF750C09E50C2418FBE434F0FC8B828C83A7
:2004C300E0FFFA7D00E519C39AF519E51A9DF51A74FF6FFD8B828C83F0050C74DB250C50E3
:2004E300D2AD196305FF90F03DEDF0AD1A6305FF90F03EEDF075281F90F01F75F000120DB8
:2005030023C2A00207C2E51870030207C2BFBB028008BFBC0280030207C275E1049014E69A
:200523001208D190F021E0FD24FE501B7528197529F0752A00752B04752C0090F00075F0B5
:2005430000120DB075180090F023E0FDBDFF0280187528237529F0752A00752B10752C0028
:2005630090F00875F000120DB07528047529F0752A00752B04752C0090F01D75F000120D88
:20058300B07528FF75291A752A0090F02375F000120E0575190F751A1D750C00AC197B007E
:2005A300851A1D8B1EE50C2418F582E434F0F583E0FD7A00E51D6205E51E6202E4CD25E0D2
:2005C300CD33FAED24A2F582EA340FF583E493FAA3E493FDEA6BF519ED6CF51A050C74DA9D
:2005E300250C50B8AD1A90F03EEDF0AD1990F03FEDF07F02750B00BF4800400302076EE554
:200603000B2418F582E434F0F583E0C4540F900F9293FDAC0B050BEC2418F582E434F0F56E
:2006230083E0FC740F5C900F9293FE8F040FEC2468F582E434F0F583EE235401FCED420411
:20064300ECF0E50B2418F582E434F0F583E0C4540F900F9293FD8F040FEC2468F582E43427
:20066300F0F583EE2EFCED232354034204ECF0AC0B050BEC2418F582E434F0F583E0FC7415
:200683000F5C900F9293FE8F040FEC2468F582E434F0F583ED2D25E0FCEEC40354074204A8
:2006A300ECF0E50B2418F582E434F0F583E0C4540F900F9293FD8F040FEC2468F582E434C7
:2006C300F0F583EEC40354F8FCEDC4540F4204ECF0AC0B050BEC2418F582E434F0F583E0B6
:2006E300FC740F5C900F9293FE8F040FEC2468F582E434F0F583EDC454F0FCEEC423541F10
:200703004204ECF0E50B2418F582E434F0F583E0C4540F900F9293FD8F040FEC2468F58238
:20072300E434F0F583EEC42354E0FCED0303543FFB4204ECF0AC0B050BEC2418F582E43410
:20074300F0F583E0FC740F5C900F9293FE8F040FEC2468F582E434F0F583ED030354C0FD9C
:20076300EEC313FE4205EDF00205FA120AB0E5D130E0FB90DF3BE0FFBF0DF8E518702775AC
:200783002118F52290F000F5F0120AC77582001209D2AFD174FE5FF5D175D60143B8081262
:2007A300083DC28780197582001209D2AFD174FE5FF5D175D6018007AFD174FE5FF5D175B5
:2007C300D601802790DF3BE0FF540C701E75E10490DF3BE0FFBF01F81209A2AFD174FE5F78
:2007E300F5D175D60175080012083D120D9F020185C020C0E0C0F0C082C083C007C006C0C8
:2008030005C004C003C002C001C000C0D075D000C2C374F025094005050912083DD0D0D000
:2008230000D001D002D003D004D005D006D007D083D082D0F0D0E0D0203275E104E5082447
:2008430008F582E434F0F583E0FFE50804540FF508BF8000501490DF09745CF090DF0A749E
:200863004EF090DF0B74C4F08016EF24DAFF90DF09745DF090DF0A7409F090DF0B74D8F03E
:0A088300EF2F90DF06F075E102226E
:200F120000000016008A2C4E00161616583A9C1600622CA62C3A2C2CB03A74163A3A2C3ADF
:200F32000062C44E584E4E4E58D274165858584E62627462E8622C4E74627474583A74FEBF
:200F5200008AC4A68A8A9C8AB0D29C169C8A9C9CB0A6A6A6E88A2CA6B0B0B0A6B03A9CFE9F
:200F7200C4D2C4C4E88AC44ED2D2C4D258D29CFEE862C4A6E8E8E8FEB0D274FEE8FEFEFE7F
:200F920000162C3A4E5862748A9CA6B0C4D2E8FE00002110422063308440A550C660E770F3
:200FB200088129914AA16BB18CC1ADD1CEE1EFF13112100273325222B5529442F772D6628F
:200FD200399318837BB35AA3BDD39CC3FFF3DEE36224433420040114E664C774A44485544F
:200FF2006AA54BB528850995EEE5CFF5ACC58DD55336722611163006D776F6669556B4460F
:201012005BB77AA719973887DFF7FEE79DD7BCC7C448E5588668A7784008611802282338CE
:20103200CCC9EDD98EE9AFF9488969990AA92BB9F55AD44AB77A966A711A500A333A122A8E
:20105200FDDBDCCBBFFB9EEB799B588B3BBB1AABA66C877CE44CC55C222C033C600C411C4E
:20107200AEED8FFDECCDCDDD2AAD0BBD688D499D977EB66ED55EF44E133E322E511E700E0E
:201092009FFFBEEFDDDFFCCF1BBF3AAF599F788F8891A981CAB1EBA10CD12DC14EF16FE106
:2010B2008010A100C230E3200450254046706760B9839893FBA3DAB33DC31CD37FE35EF38E
:2010D200B1029012F322D2323542145277625672EAB5CBA5A89589856EF54FE52CD50DC54E
:2010F200E234C324A01481046674476424540544DBA7FAB79987B8975FE77EF71DC73CD70E
:20111200D326F2369106B01657667676154634564CD96DC90EF92FE9C899E9898AB9ABA9CD
:201132004458654806782768C018E1088238A3287DCB5CDB3FEB1EFBF98BD89BBBAB9ABB8D
:20115200754A545A376A167AF10AD01AB32A923A2EFD0FED6CDD4DCDAABD8BADE89DC98D4D
:20117200267C076C645C454CA23C832CE01CC10C1FEF3EFF5DCF7CDF9BAFBABFD98FF89F0D
:10119200176E367E554E745E932EB23ED10EF01E01
:20088D00D2A0D287AFBE74FB5FF5BEE5BE30E6FB0075C680E5BE30E6FB0043BE04C2A0C246
:0208AD008722A0
:2008AF00AE82AF838E048F051EBEFF011FEC4D6010795619E960087A1E1AEA60F680FA80D8
:1908CF00E322AE82AF838E048F051EBEFF011FEC4D600500000080EE225A
:2008E80075E10490DF027448F090DF04E4F090DF07740AF090DF08E4F090DF0C740EF09086
:20090800DF0D743BF090DF0E7405F090DF0F7423F090DF10743BF090DF117467F090DF136E
:20092800740FF090DF147414F090DF15741DF090DF1614F090DF1774C7F090DF18E4F09017
:20094800DF1974B2F090DF1A74B6F090DF1B7410F090DF1EE4F090DF1F7411F090DF247475
:2009680031F090DF257409F090DF2E74FFF090DF007454F090DF017475F090DF0574C5F040
:2009880090DF03740DF01209A27582001209D2AFD174FE5FF5D175D6012290DF09745CF00E
:2009A80090DF0A744EF090DF0B74C4F090DF06747FF090DF1C74EAF075E10190DF3BE0FF51
:2009C800BF01F890DF1C74CAF022AF8290F047E054FC4402F090F047E054FBF090F047E091
:2009E80054F7F090F046E054E04413F090F046E0549FF090F046E0547FF0EF60507E687F9D
:200A0800F08F0690F040EEF07E687FF090F041EEF07ED97FDF8F0690F042EEF07ED97FDF18
:200A280090F043EEF090F044E0541F4420F090F044E054E0F090F0457448F090F047E0546E
:200A48003F4440F090F047E054CFF0804E7ED97FDF8F0690F040EEF07ED97FDF90F041EE07
:200A6800F07E687FF08F0690F042EEF07E687FF090F043EEF090F044E0541F4480F090F0B3
:200A880044E054E0F090F045744AF090F047E0543FF090F047E054CF4410F07E407FF08F9F
:1F0AA800D57E407FF08ED42275D6817582011209D2AFD174FE5FF5D175D60175E103221A
:200AC70085822385832485F025903C00852126852227020B1785822A85832B85F02C7B0015
:200AE7007C00C3EB9528EC95295024EB252AF8EC352BF9AA2C8B82743C2CF583E493FF883E
:200B07008289838AF0120E240BBB00D60C80D322AE82AF83E52630E0080526E4B5260205EF
:200B270027ADA8747F5DF5A875D69F90F0B9E054FC4402F090F0B9E054FBF090F0B9E054F7
:200B4700F7F090F0B8E054E04412F090F0B8E0549FF090F0B8E0547FF0AC23AD248D03907F
:200B6700F0B2EBF090F0B3ECF07CAF7DDF8D0490F0B4ECF07CAF7DDF90F0B5ECF090F0B6EC
:200B8700E0541FF0AD2790F0B6ED541FF5F0E054E045F0F0AD2690F0B7EDF090F0B9E0542F
:200BA7003F4440F090F0B9E054CFF07CB27DF08DD58CD4E5AE20E7FB75AB2AEFC313CE136D
:200BC700CEFF8FAD8EAC43A880AFA8747F5FF5A875D100120C12E5AE20E7FB43A880AFA84D
:200BE700747F5FF5A875D60100120C0CE5D1FF30E0FAE5AE54C0600280F843A880AFD174EA
:050C0700FE5FF5D122A3
:050C0D0043AE020022CD
:050C130043AE010022C8
:200C1800AFF174FD5FF5F1743F55FF4440F5FF43F33043FD1075FA22AFFC74E05F440CF5FD
:200C3800FC90F0BAE04401F0E054FDF0E04420F090F0BAE054FBF090F0BAE054F7F090F0CE
:200C5800BAE054EFF090F0BAE054BFF090F0BAE0547FF090F0BA120CF290F05FE054FCF06C
:200C7800E04404F0E054F7F090F05EE054E04411F090F05EE0549FF090F05EE0547FF09040
:200C9800F058E4F090F059F07EF97FDF8F0690F05AEEF07EF97FDF90F05BEEF090F05CE0EB
:200CB800541FF090F05CE054E0F090F05DE4F090F05FE0543F4440F090F05FE054CFF07E12
:200CD800487FF08FD37E487FF08ED243D6087F2D8F061FEE60030080F722AE82AF8343F846
:200CF800808E828F83E0FD747F5DF5FB8E828F83E030E70543FC208007AFFC74DF5FF5FCCB
:200D180043A908AFB974F75FF5B922AD82AE83AFF074012DFAE43EFB8F048A008B018900DB
:200D380090F058E8F090F059EAF0AB287C008C0290F05CEA541FF5F0E054E045F0F090F084
:1D0D58005DEBF043D6087C2D8C031CEB60030080F78D828E838FF0120EF2F5F9224B
:200D7500E5C620E714D287D2A09000C81208AFC2A09000C81208AF80EEAFC974FC5FF5C9B6
:1B0D9500AFC974FB5F4408F5C922740F55C944A0F5C9740F55C94450F5C92279
:06009000E478FFF6D8FD44
:200DB000AD82AE83AFF08D2D8E2E8F2F852830852931852A32A82BA92C8803890418B8FFC4
:200DD0000119EB4C60258530828531838532F0120EF2FCA38582308583318D828E838FF056
:150DF000EC120E24A3AD82AE8380CE852D82852E83852FF0223D
:1F0E0500AC82AD83AE29AF2ABE0004EF600C1F0FE528120E24A3DEFADFF88C828D832292
:20006E007900E94400601B7A009011A278BB7593F0E493F2A308B800020593D9F4DAF275F5
:02008E0093FFDE
:1B0E240020F71130F6138883A88220F509F6A8837583002280FEF280F5F022CD
:1D0E3F00E5828528F0A4C582C0F08529F0A4D0F025F0C5838528F0A42583F5832215
:200E5C0085822D85832E85F02FE52B452C700490000022AB2BAC2C1BBBFF011CEB4C604842
:200E7C00A82DA92EAA2F888289838AF0120EF2FF852830852931852A32853082853183859E
:200E9C0032F0120EF2FEEFB5061E08B8000109882D892E8A2F74012530FDE43531FEAF325D
:200EBC008D288E298F2A80AFAD2DAE2EAF2F8D828E838FF0120EF2FD7F00AB28AC29AE2A81
:160EDC008B828C838EF0120EF2FB7E00EDC39BF582EF9EF58322F2
:200096007800E84400600A79007593F0E4F309D8FC78BBE84400600C790190F000E4F0A3DB
:0400B600D8FCD9FA9F
:0D006100758132120F0EE582600302005E11
:1C0EF20020F71430F6148883A88220F507E6A88375830022E280F7E49322E0220F
:040F0E0075820022C6
:00000001FF
