:040000000200613267
:01000B0032C2
:0100130032BA
:01001B0032B2
:0100230032AA
:01002B0032A2
:01003300329A
:01003B003292
:01004300328A
:01004B003282
:01005300327A
:03005B0002089305
:0900BA0075210075221002005EA0
:03005E000200C3DA
:2000C3007533007544FC754503E4F547F548AAFF74FD5AF5FFAAF774FD5AF5F71209AC43DC
:2000E300FF01C2A043FD80C287120E879000641209CEE5A030E105754100805A754101D25A
:200103008775B5BE7E0075B473E5B420E6FBEE30E008E5BA5533F5BC8007E5BAC4540FF599
:20012300330EBE040040DF7E0443B404E5B4540C70FAEE2400F582E434F0F583E5BCF0EE32
:20014300042400F582E434F0F583E5BDF00E0EBE080040D5800F750F1875100090F000754F
:20016300F000120BEE43C63875CD6175CB7ED2AF120D2A120A07E541700612093B43B808FD
:2001830075E1027E00E5D1FD20E00302086990DF38E0FD8D4690F068E0FDBDC50280030238
:2001A300085D90F069E0FDBD2A02800302085D75340075330274B82533500302037AC006CF
:2001C300E5332468FBE434F0FC8B3E8C3F754000853E82853F838540F012102DFC8C36855D
:2001E3003E82853F838540F012102D035480FC7401253EFAE4353FFBAD408A828B838DF075
:2002030012102DC3134CF5378A828B838DF012102D030354C0FA7402253EFCE4353FFDAE6C
:20022300408C828D838EF012102D0303543F4AF5388C828D838EF012102DC42354E0FC740A
:2002430003253EFBE4353FFDAE408B828D838EF012102DC423541F4CF5398B828D838EF09E
:2002630012102DC454F0FB7404253EFCE4353FFDAE408C828D838EF012102DC4540F4BF5BD
:200283003A8C828D838EF012102DC40354F8FC7405253EFBE4353FFDAE408B828D838EF072
:2002A30012102DC40354074CF53B8B828D838EF012102D25E025E0FB7406253EFCE4353F2E
:2002C300FDAE408C828D838EF012102D23235403FA4BF53C8C828D838EF012102D25E0FC46
:2002E3008C3D753500D006E5352436F9E7C31390108593FDF7053574F8253550EAAD3405BC
:2003030034ED2418F582E434F0F58374F05536FDE537C4540F4205EDF0AD340534ED2418F0
:20032300F582E434F0F58374F05538FDE539C4540F4205EDF0AD340534ED2418F582E4349A
:20034300F0F58374F0553AFDE53BC4540F4205EDF0AD340534ED2418F582E434F0F5837429
:20036300F0553CFDE53DC4540FFC4205EDF074072533F5330201B8ADD174FE5DF5D175D67F
:200383000175420F75431D753500C006AB427A008543498A4AE5352418F582E434F0F583B5
:2003A300E0FD7E00E5496205E54A6206E4CD25E0CD33FEED2415F582EE3411F583E493FD43
:2003C300A3E493FEED6AF542EE6BF5430535C3E5359426D00640B390F03EE0FDAC43B50406
:2003E30002800302086490F03FE0FDAC42B50402800302086490F018E0F5337458B533027B
:20040300800302057A750F007510F075110075120875130090F01975F000C006120F6EE507
:20042300828583F0D00645F06003020864D2A07408B5220FC0061208E1D00675CB7E75CDF8
:2004430057800F745725CAF5CDE5CD2494500375CD61C00675220090F0B0E0FD6305808DF8
:2004630003E4CB25E0CB33CB25E0CB33FC85440F85451090003FC004C003120F51AA82AEA6
:2004830083D003D004EA2BFBEE3C8B44A2E7C54433C54433A2E7C54433C54433C5445403C4
:2004A300F54574E82544F54274033545F543AC4290F03BECF0AE4390F03CEEF090F01F74B7
:2004C300DFF090F02023F075429F7543FF753509D006E5352418FBE434F0FC8B828C83E0B0
:2004E300F533AA337F00E542C39AF542E5439FF54374FF6533FF8B828C83F0053574DB25F7
:200503003550CFAC426304FF90F03DECF0AF436307FF90F03EEFF0750F1F90F01F75F000F8
:20052300C006120E35D0060EE546FC3395E0FFEC2547F547EF3548F548BEFF36750FFF75C3
:200543001000854782854883C006121049858247858348D00690DF08E0FF3395E0FCEF2537
:2005630047F547EC3548F548E547F546F0E4F547F548C2A0020864E541700302086474BB95
:20058300B53302800A74BCB53302800302086475E1049014E6C0061209F0D00690F021E0CD
:2005A300FF24FE501F750F197510F075110075120475130090F00075F000C006120EC2D0A0
:2005C3000675410090F023E0FFBFFF02801C750F237510F075110075121075130090F00835
:2005E30075F000C006120EC2D006750F047510F075110075120475130090F01D75F000C0BD
:2006030006120EC2750FFF75101A75110090F02375F000120F17D00675420F75431D7535EC
:2006230000C006AC427B008543498B4AE5352418F582E434F0F583E0FE7F00E5496206E57D
:200643004A6207E4CE25E0CE33FFEE2415F582EF3411F583E493FEA3E493FFEE6BF542EFD6
:200663006CF5430535C3E5359426D00640B3AF4390F03EEFF0AC4290F03FECF07533027502
:20068300340074B825335003020801E5342418F582E434F0F583E0C4540F90110593FFAC0A
:2006A300340534EC2418F582E434F0F583E0FC740F5C90110593FDAC330533EC2468F582B4
:2006C300E434F0F583ED235401FCEF4204ECF0E5342418F582E434F0F583E0C4540F901131
:2006E3000593FFAC330533EC2468F582E434F0F583ED2DFCEF232354034204ECF0AC340531
:2007030034EC2418F582E434F0F583E0FC740F5C90110593FDAC330533EC2468F582E43474
:20072300F0F583EF2F25E0FCEDC40354074204ECF0E5342418F582E434F0F583E0C4540FAB
:2007430090110593FFAC330533EC2468F582E434F0F583EDC40354F8FCEFC4540F4204EC94
:20076300F0AC340534EC2418F582E434F0F583E0FC740F5C90110593FDAC330533EC2468CE
:20078300F582E434F0F583EFC454F0FCEDC423541F4204ECF0E5342418F582E434F0F583B7
:2007A300E0C4540F90110593FFAC330533EC2468F582E434F0F583EDC42354E0FCEF030378
:2007C300543FFB4204ECF0AC340534EC2418F582E434F0F583E0FC740F5C90110593FDAC91
:2007E300330533EC2468F582E434F0F583EF030354C0FFEDC313FD4207EFF0020685C006D9
:20080300120BC2D006E5D130E0FB90DF3BE0FFBF0DF8E541702E750818F50990F000F5F056
:20082300C006120BD912093B758200120AE4D006AFD174FE5FF5D175D60143B80875E10218
:20084300C287801D758200C006120AE4D006AFD174FE5FF5D175D6018007AFD174FE5FF5EC
:20086300D175D601802090DF3BE0FFBF111875E10490DF3BE0FFBF01F8AFD174FE5FF5D195
:2008830075D60175E102C006120EB1D006020188C020C0E0C0F0C082C083C007C006C005B2
:2008A300C004C003C002C001C000C0D075D000C2C374F82522400705221208E1800375E11C
:2008C30002D0D0D000D001D002D003D004D005D006D007D083D082D0F0D0E0D0203275E14A
:2008E30004E5212408F582E434F0F583E0FFBF8000501490DF09745CF090DF0A744EF09053
:20090300DF0B74C4F08016EF24DAFF90DF09745DF090DF0A7409F090DF0B74D8F0EF2F90BD
:20092300DF06F0E5212423F990DF1EE7F0E52104540FF52175E1022275E10490DF3BE0FF55
:20094300BF01F87F00EF2408F582E434F0F583E0FEBE8000501490DF09745CF090DF0A74A6
:200963004EF090DF0B74C4F08016EE24DAFE90DF09745DF090DF0A7409F090DF0B74D8F03F
:20098300EE2EFE90DF06F075E10190DF3BE0FEBE01F8EF2423F990DF1EE0FEF70FBF1000D0
:0909A30040A390DF147404F0225B
:2010850000000016008A2C4E00161616583A9C1600622CA62C3A2C2CB03A74163A3A2C3A6B
:2010A5000062C44E584E4E4E58D274165858584E62627462E8622C4E74627474583A74FE4B
:2010C500008AC4A68A8A9C8AB0D29C169C8A9C9CB0A6A6A6E88A2CA6B0B0B0A6B03A9CFE2B
:2010E500C4D2C4C4E88AC44ED2D2C4D258D29CFEE862C4A6E8E8E8FEB0D274FEE8FEFEFE0B
:2011050000162C3A4E5862748A9CA6B0C4D2E8FE00002110422063308440A550C660E7707E
:20112500088129914AA16BB18CC1ADD1CEE1EFF13112100273325222B5529442F772D6621A
:20114500399318837BB35AA3BDD39CC3FFF3DEE36224433420040114E664C774A4448554DA
:201165006AA54BB528850995EEE5CFF5ACC58DD55336722611163006D776F6669556B4469A
:201185005BB77AA719973887DFF7FEE79DD7BCC7C448E5588668A77840086118022823385A
:2011A500CCC9EDD98EE9AFF9488969990AA92BB9F55AD44AB77A966A711A500A333A122A1A
:2011C500FDDBDCCBBFFB9EEB799B588B3BBB1AABA66C877CE44CC55C222C033C600C411CDA
:2011E500AEED8FFDECCDCDDD2AAD0BBD688D499D977EB66ED55EF44E133E322E511E700E9A
:201205009FFFBEEFDDDFFCCF1BBF3AAF599F788F8891A981CAB1EBA10CD12DC14EF16FE191
:201225008010A100C230E3200450254046706760B9839893FBA3DAB33DC31CD37FE35EF319
:20124500B1029012F322D2323542145277625672EAB5CBA5A89589856EF54FE52CD50DC5D9
:20126500E234C324A01481046674476424540544DBA7FAB79987B8975FE77EF71DC73CD799
:20128500D326F2369106B01657667676154634564CD96DC90EF92FE9C899E9898AB9ABA959
:2012A5004458654806782768C018E1088238A3287DCB5CDB3FEB1EFBF98BD89BBBAB9ABB19
:2012C500754A545A376A167AF10AD01AB32A923A2EFD0FED6CDD4DCDAABD8BADE89DC98DD9
:2012E500267C076C645C454CA23C832CE01CC10C1FEF3EFF5DCF7CDF9BAFBABFD98FF89F99
:10130500176E367E554E745E932EB23ED10EF01E8C
:2009AC00D2A0D287AFBE74FB5FF5BEE5BE30E6FB0075C680E5BE30E6FB0043BE04C2A0C226
:0209CC00872280
:2009CE00AE82AF838E048F051EBEFF011FEC4D6010795619E960087A1E1AEA60F680FA80B8
:1909EE00E322AE82AF838E048F051EBEFF011FEC4D600500000080EE223A
:200A070075E10490DF007454F090DF017475F090DF027448F090DF037405F090DF04E4F0C6
:200A270090DF0574C5F090DF077410F090DF0C740EF090DF0D743BF090DF0E7405F090DFCB
:200A47000F7423F090DF10743BF090DF117467F090DF137403F090DF147414F090DF1574B4
:200A67001DF090DF1614F090DF1774C7F090DF187440F090DF1974B2F090DF1EE4F090DF8F
:200A87001F7411F090DF247431F090DF257409F090DF2E74FFF0120AB1758200120AE4AF1F
:200AA700D174FE5FF5D175D6012290DF09745CF090DF0A744EF090DF0B74C4F090DF06746B
:200AC7001AF090DF1C74EAF075E10190DF3BE0FFBF01F890DF1CE0FF74CF5FF022AF8290B5
:200AE700F047E054FC4402F090F047E054FBF090F047E054F7F090F046E054E04413F090D9
:200B0700F046E0549FF090F046E0547FF0EF60507E687FF08F0690F040EEF07E687FF09060
:200B2700F041EEF07ED97FDF8F0690F042EEF07ED97FDF90F043EEF090F044E0541F4420E4
:200B4700F090F044E054E0F090F0457448F090F047E0543F4440F090F047E054CFF0804E2F
:200B67007ED97FDF8F0690F040EEF07ED97FDF90F041EEF07E687FF08F0690F042EEF07E2A
:200B8700687FF090F043EEF090F044E0541F4480F090F044E054E0F090F045744AF090F050
:200BA70047E0543FF090F047E054CF4410F07E407FF08FD57E407FF08ED42275D681758271
:120BC70001120AE4AFD174FE5FF5D175D60175E103223D
:200BD90085820A85830B85F00C903C0085080D85090E020C2985821185831285F0137B00E9
:200BF9007C00C3EB950FEC95105024EB2511F8EC3512F9AA138B82743C2CF583E493FF88A8
:200C19008289838AF0120F360BBB00D60C80D322AE82AF83E50D30E008050DE4B50D020514
:200C39000EADA8747F5DF5A875D69F90F0B9E054FC4402F090F0B9E054FBF090F0B9E054FD
:200C5900F7F090F0B8E054E04412F090F0B8E0549FF090F0B8E0547FF0AC0AAD0B8D03909E
:200C7900F0B2EBF090F0B3ECF07CAF7DDF8D0490F0B4ECF07CAF7DDF90F0B5ECF090F0B6D9
:200C9900E0541FF0AD0E90F0B6ED541FF5F0E054E045F0F0AD0D90F0B7EDF090F0B9E0544E
:200CB9003F4440F090F0B9E054CFF07CB27DF08DD58CD4E5AE20E7FB75AB2AEFC313CE135A
:200CD900CEFF8FAD8EAC43A880AFA8747F5FF5A875D100120D24E5AE20E7FB43A880AFA827
:200CF900747F5FF5A875D60100120D1EE5D1FF30E0FAE5AE54C0600280F843A880AFD174C4
:050D1900FE5FF5D12290
:050D1F0043AE020022BA
:050D250043AE010022B5
:200D2A00AFF174FD5FF5F1743F55FF4440F5FF43F33043FD1075FA22AFFC74E05F440CF5EA
:200D4A00FC90F0BAE04401F0E054FDF0E04420F090F0BAE054FBF090F0BAE054F7F090F0BB
:200D6A00BAE054EFF090F0BAE054BFF090F0BAE0547FF090F0BA120E0490F05FE054FCF045
:200D8A00E04404F0E054F7F090F05EE054E04411F090F05EE0549FF090F05EE0547FF0902D
:200DAA00F058E4F090F059F07EF97FDF8F0690F05AEEF07EF97FDF90F05BEEF090F05CE0D8
:200DCA00541FF090F05CE054E0F090F05DE4F090F05FE0543F4440F090F05FE054CFF07EFF
:200DEA00487FF08FD37E487FF08ED243D6087F2D8F061FEE60030080F722AE82AF8343F833
:200E0A00808E828F83E0FD747F5DF5FB8E828F83E030E70543FC208007AFFC74DF5FF5FCB7
:200E2A0043A908AFB974F75FF5B922AD82AE83AFF074012DFAE43EFB8F048A008B018900C8
:200E4A0090F058E8F090F059EAF0AB0F7C008C0290F05CEA541FF5F0E054E045F0F090F08A
:1D0E6A005DEBF043D6087C2D8C031CEB60030080F78D828E838FF012102DF5F922FB
:200E8700E5C620E714D287D2A09000C81209CEC2A09000C81209CE80EEAFC974FC5FF5C963
:1B0EA700AFC974FB5F4408F5C922740F55C944A0F5C9740F55C94450F5C92266
:06009000E478FFF6D8FD44
:200EC200AD82AE83AFF08D148E158F16850F17851018851119A812A9138803890418B8FFC4
:200EE2000119EB4C60258517828518838519F012102DFCA38582178583188D828E838FF083
:150F0200EC120F36A3AD82AE8380CE8514828515838516F02261
:1F0F1700AC82AD83AE10AF11BE0004EF600C1F0FE50F120F36A3DEFADFF88C828D8322B7
:20006E007900E94400601B7A0090131578BB7593F0E493F2A308B800020593D9F4DAF27580
:02008E0093FFDE
:1B0F360020F71130F6138883A88220F509F6A8837583002280FEF280F5F022BA
:1D0F5100E582850FF0A4C582C0F08510F0A4D0F025F0C583850FF0A42583F583224D
:200F6E0085821485831585F016E5124513700490000022AB12AC131BBBFF011CEB4C6048DE
:200F8E00A814A915AA16888289838AF012102DFF850F178510188511198517828518838561
:200FAE0019F012102DFEEFB5061E08B8000109881489158A1674012517FDE43518FEAF19BC
:200FCE008D0F8E108F1180AFAD14AE15AF168D828E838FF012102DFD7F00AB0FAC10AE1112
:160FEE008B828C838EF012102DFB7E00EDC39BF582EF9EF58322A2
:200096007800E84400600A79007593F0E4F309D8FC78BBE84400600C790190F000E4F0A3DB
:0400B600D8FCD9FA9F
:201004007A10E4FBFCE58225E0F582E58333F583EB33FBEC33FCEB950FF5F0EC95104006F2
:09102400FCABF0438201DADD228D
:0D00610075814A121081E582600302005E85
:1C102D0020F71430F6148883A88220F507E6A88375830022E280F7E49322E022D2
:20104900C2D5E58330E70DD2D5E4C39582F582E49583F583E51030E70DB2D5E4C3950FF534
:181069000FE49510F51012100430D50BE4C39582F582E49583F58322D1
:041081007582002252
:00000001FF
